{
	"Messenger_SC.sol": {
		"Messenger": {
			"abi": [
				{
					"inputs": [],
					"name": "read_messages",
					"outputs": [
						{
							"components": [
								{
									"internalType": "address",
									"name": "_from",
									"type": "address"
								},
								{
									"internalType": "string",
									"name": "_message",
									"type": "string"
								}
							],
							"internalType": "struct Messenger.Message[]",
							"name": "",
							"type": "tuple[]"
						}
					],
					"stateMutability": "view",
					"type": "function"
				},
				{
					"inputs": [
						{
							"internalType": "address",
							"name": "_sender_address",
							"type": "address"
						},
						{
							"internalType": "string",
							"name": "message_content",
							"type": "string"
						}
					],
					"name": "send_message",
					"outputs": [],
					"stateMutability": "nonpayable",
					"type": "function"
				}
			],
			"devdoc": {
				"kind": "dev",
				"methods": {},
				"version": 1
			},
			"evm": {
				"assembly": "    /* \"Messenger_SC.sol\":61:511  contract Messenger{... */\n  mstore(0x40, 0x80)\n  callvalue\n  dup1\n  iszero\n  tag_1\n  jumpi\n  0x00\n  dup1\n  revert\ntag_1:\n  pop\n  dataSize(sub_0)\n  dup1\n  dataOffset(sub_0)\n  0x00\n  codecopy\n  0x00\n  return\nstop\n\nsub_0: assembly {\n        /* \"Messenger_SC.sol\":61:511  contract Messenger{... */\n      mstore(0x40, 0x80)\n      callvalue\n      dup1\n      iszero\n      tag_1\n      jumpi\n      0x00\n      dup1\n      revert\n    tag_1:\n      pop\n      jumpi(tag_2, lt(calldatasize, 0x04))\n      shr(0xe0, calldataload(0x00))\n      dup1\n      0x21dee0e6\n      eq\n      tag_3\n      jumpi\n      dup1\n      0xf122ed60\n      eq\n      tag_4\n      jumpi\n    tag_2:\n      0x00\n      dup1\n      revert\n        /* \"Messenger_SC.sol\":398:506  function read_messages() public view returns (Message[] memory){... */\n    tag_3:\n      tag_5\n      tag_6\n      jump\t// in\n    tag_5:\n      mload(0x40)\n      tag_7\n      swap2\n      swap1\n      tag_8\n      jump\t// in\n    tag_7:\n      mload(0x40)\n      dup1\n      swap2\n      sub\n      swap1\n      return\n        /* \"Messenger_SC.sol\":219:390  function send_message(address _sender_address, string memory message_content) public {... */\n    tag_4:\n      tag_9\n      tag_10\n      calldatasize\n      0x04\n      tag_11\n      jump\t// in\n    tag_10:\n      tag_12\n      jump\t// in\n    tag_9:\n      stop\n        /* \"Messenger_SC.sol\":398:506  function read_messages() public view returns (Message[] memory){... */\n    tag_6:\n        /* \"Messenger_SC.sol\":487:497  msg.sender */\n      caller\n        /* \"Messenger_SC.sol\":479:486  message */\n      0x00\n        /* \"Messenger_SC.sol\":479:498  message[msg.sender] */\n      swap1\n      dup2\n      mstore\n      0x20\n      dup2\n      dup2\n      mstore\n      0x40\n      dup1\n      dup4\n      keccak256\n        /* \"Messenger_SC.sol\":472:498  return message[msg.sender] */\n      dup1\n      sload\n      dup3\n      mload\n      dup2\n      dup6\n      mul\n      dup2\n      add\n      dup6\n      add\n      swap1\n      swap4\n      mstore\n      dup1\n      dup4\n      mstore\n        /* \"Messenger_SC.sol\":444:460  Message[] memory */\n      0x60\n      swap5\n        /* \"Messenger_SC.sol\":472:498  return message[msg.sender] */\n      swap3\n      swap4\n        /* \"Messenger_SC.sol\":479:498  message[msg.sender] */\n      swap2\n      swap3\n        /* \"Messenger_SC.sol\":472:498  return message[msg.sender] */\n      swap1\n      swap2\n      dup5\n      add\n    tag_14:\n      dup3\n      dup3\n      lt\n      iszero\n      tag_15\n      jumpi\n      0x00\n      dup5\n      dup2\n      mstore\n      0x20\n      swap1\n      dup2\n      swap1\n      keccak256\n      0x40\n      dup1\n      mload\n      dup1\n      dup3\n      add\n      swap1\n      swap2\n      mstore\n      0x02\n      dup6\n      mul\n      swap1\n      swap2\n      add\n      dup1\n      sload\n      sub(shl(0xa0, 0x01), 0x01)\n      and\n      dup3\n      mstore\n      0x01\n      dup2\n      add\n      dup1\n      sload\n      swap3\n      swap4\n      swap2\n      swap3\n      swap2\n      dup5\n      add\n      swap2\n      tag_17\n      swap1\n      tag_18\n      jump\t// in\n    tag_17:\n      dup1\n      0x1f\n      add\n      0x20\n      dup1\n      swap2\n      div\n      mul\n      0x20\n      add\n      mload(0x40)\n      swap1\n      dup2\n      add\n      0x40\n      mstore\n      dup1\n      swap3\n      swap2\n      swap1\n      dup2\n      dup2\n      mstore\n      0x20\n      add\n      dup3\n      dup1\n      sload\n      tag_19\n      swap1\n      tag_18\n      jump\t// in\n    tag_19:\n      dup1\n      iszero\n      tag_20\n      jumpi\n      dup1\n      0x1f\n      lt\n      tag_21\n      jumpi\n      0x0100\n      dup1\n      dup4\n      sload\n      div\n      mul\n      dup4\n      mstore\n      swap2\n      0x20\n      add\n      swap2\n      jump(tag_20)\n    tag_21:\n      dup3\n      add\n      swap2\n      swap1\n      0x00\n      mstore\n      keccak256(0x00, 0x20)\n      swap1\n    tag_22:\n      dup2\n      sload\n      dup2\n      mstore\n      swap1\n      0x01\n      add\n      swap1\n      0x20\n      add\n      dup1\n      dup4\n      gt\n      tag_22\n      jumpi\n      dup3\n      swap1\n      sub\n      0x1f\n      and\n      dup3\n      add\n      swap2\n    tag_20:\n      pop\n      pop\n      pop\n      pop\n      pop\n      dup2\n      mstore\n      pop\n      pop\n      dup2\n      mstore\n      0x20\n      add\n      swap1\n      0x01\n      add\n      swap1\n      jump(tag_14)\n    tag_15:\n      pop\n      pop\n      pop\n      pop\n      swap1\n      pop\n        /* \"Messenger_SC.sol\":398:506  function read_messages() public view returns (Message[] memory){... */\n      swap1\n      jump\t// out\n        /* \"Messenger_SC.sol\":219:390  function send_message(address _sender_address, string memory message_content) public {... */\n    tag_12:\n      sub(shl(0xa0, 0x01), 0x01)\n        /* \"Messenger_SC.sol\":315:339  message[_sender_address] */\n      dup3\n      dup2\n      and\n        /* \"Messenger_SC.sol\":315:322  message */\n      0x00\n        /* \"Messenger_SC.sol\":315:339  message[_sender_address] */\n      swap1\n      dup2\n      mstore\n      0x20\n      dup2\n      dup2\n      mstore\n      0x40\n      dup1\n      dup4\n      keccak256\n        /* \"Messenger_SC.sol\":345:381  Message(msg.sender,message_content ) */\n      dup2\n      mload\n      dup1\n      dup4\n      add\n      swap1\n      swap3\n      mstore\n        /* \"Messenger_SC.sol\":353:363  msg.sender */\n      caller\n        /* \"Messenger_SC.sol\":345:381  Message(msg.sender,message_content ) */\n      dup3\n      mstore\n      dup2\n      dup4\n      add\n      dup7\n      dup2\n      mstore\n        /* \"Messenger_SC.sol\":315:382  message[_sender_address].push(Message(msg.sender,message_content )) */\n      dup2\n      sload\n      0x01\n      dup1\n      dup3\n      add\n      dup5\n      sstore\n      swap3\n      dup7\n      mstore\n      swap4\n      swap1\n      swap5\n      keccak256\n      dup3\n      mload\n      0x02\n      swap1\n      swap5\n      mul\n      add\n      dup1\n      sload\n      not(sub(shl(0xa0, 0x01), 0x01))\n      and\n      swap4\n      swap1\n      swap6\n      and\n      swap3\n      swap1\n      swap3\n      or\n      dup5\n      sstore\n      swap2\n      mload\n        /* \"Messenger_SC.sol\":345:381  Message(msg.sender,message_content ) */\n      swap2\n      swap3\n        /* \"Messenger_SC.sol\":315:382  message[_sender_address].push(Message(msg.sender,message_content )) */\n      swap2\n      swap1\n      dup3\n      add\n      swap1\n      tag_25\n      swap1\n      dup3\n      tag_26\n      jump\t// in\n    tag_25:\n      pop\n      pop\n      pop\n        /* \"Messenger_SC.sol\":219:390  function send_message(address _sender_address, string memory message_content) public {... */\n      pop\n      pop\n      jump\t// out\n        /* \"#utility.yul\":14:1471   */\n    tag_8:\n        /* \"#utility.yul\":200:204   */\n      0x00\n        /* \"#utility.yul\":229:231   */\n      0x20\n        /* \"#utility.yul\":269:271   */\n      dup1\n        /* \"#utility.yul\":258:267   */\n      dup4\n        /* \"#utility.yul\":254:272   */\n      add\n        /* \"#utility.yul\":299:301   */\n      dup2\n        /* \"#utility.yul\":288:297   */\n      dup5\n        /* \"#utility.yul\":281:302   */\n      mstore\n        /* \"#utility.yul\":322:328   */\n      dup1\n        /* \"#utility.yul\":357:363   */\n      dup6\n        /* \"#utility.yul\":351:364   */\n      mload\n        /* \"#utility.yul\":388:394   */\n      dup1\n        /* \"#utility.yul\":380:386   */\n      dup4\n        /* \"#utility.yul\":373:395   */\n      mstore\n        /* \"#utility.yul\":414:416   */\n      0x40\n        /* \"#utility.yul\":404:416   */\n      swap3\n      pop\n        /* \"#utility.yul\":447:449   */\n      dup3\n        /* \"#utility.yul\":436:445   */\n      dup7\n        /* \"#utility.yul\":432:450   */\n      add\n        /* \"#utility.yul\":425:450   */\n      swap2\n      pop\n        /* \"#utility.yul\":509:511   */\n      dup3\n        /* \"#utility.yul\":499:505   */\n      dup2\n        /* \"#utility.yul\":496:497   */\n      0x05\n        /* \"#utility.yul\":492:506   */\n      shl\n        /* \"#utility.yul\":481:490   */\n      dup8\n        /* \"#utility.yul\":477:507   */\n      add\n        /* \"#utility.yul\":473:512   */\n      add\n        /* \"#utility.yul\":547:549   */\n      dup5\n        /* \"#utility.yul\":539:545   */\n      dup9\n        /* \"#utility.yul\":535:550   */\n      add\n        /* \"#utility.yul\":568:569   */\n      0x00\n        /* \"#utility.yul\":589:590   */\n      dup1\n        /* \"#utility.yul\":599:1442   */\n    tag_33:\n        /* \"#utility.yul\":615:621   */\n      dup5\n        /* \"#utility.yul\":610:613   */\n      dup2\n        /* \"#utility.yul\":607:622   */\n      lt\n        /* \"#utility.yul\":599:1442   */\n      iszero\n      tag_35\n      jumpi\n        /* \"#utility.yul\":684:706   */\n      dup10\n      dup5\n      sub\n      not(0x3f)\n        /* \"#utility.yul\":680:716   */\n      add\n        /* \"#utility.yul\":668:717   */\n      dup7\n      mstore\n        /* \"#utility.yul\":740:753   */\n      dup3\n      mload\n        /* \"#utility.yul\":785:794   */\n      dup1\n      mload\n      sub(shl(0xa0, 0x01), 0x01)\n        /* \"#utility.yul\":781:816   */\n      and\n        /* \"#utility.yul\":766:817   */\n      dup6\n      mstore\n        /* \"#utility.yul\":856:867   */\n      dup9\n      add\n        /* \"#utility.yul\":850:868   */\n      mload\n        /* \"#utility.yul\":888:903   */\n      dup9\n      dup6\n      add\n        /* \"#utility.yul\":881:908   */\n      dup9\n      swap1\n      mstore\n        /* \"#utility.yul\":937:956   */\n      dup1\n      mload\n        /* \"#utility.yul\":976:991   */\n      dup9\n      dup7\n      add\n        /* \"#utility.yul\":969:1002   */\n      dup2\n      swap1\n      mstore\n        /* \"#utility.yul\":1026:1027   */\n      dup4\n        /* \"#utility.yul\":1040:1207   */\n    tag_36:\n        /* \"#utility.yul\":1056:1064   */\n      dup2\n        /* \"#utility.yul\":1051:1054   */\n      dup2\n        /* \"#utility.yul\":1048:1065   */\n      lt\n        /* \"#utility.yul\":1040:1207   */\n      iszero\n      tag_38\n      jumpi\n        /* \"#utility.yul\":1164:1186   */\n      dup3\n      dup2\n      add\n        /* \"#utility.yul\":1160:1191   */\n      dup12\n      add\n        /* \"#utility.yul\":1154:1192   */\n      mload\n        /* \"#utility.yul\":1131:1147   */\n      dup8\n      dup3\n      add\n        /* \"#utility.yul\":1149:1151   */\n      0x60\n        /* \"#utility.yul\":1127:1152   */\n      add\n        /* \"#utility.yul\":1120:1193   */\n      mstore\n        /* \"#utility.yul\":1075:1087   */\n      dup11\n      add\n        /* \"#utility.yul\":1040:1207   */\n      jump(tag_36)\n    tag_38:\n      pop\n        /* \"#utility.yul\":1256:1277   */\n      dup6\n      dup2\n      add\n        /* \"#utility.yul\":1230:1232   */\n      0x60\n        /* \"#utility.yul\":1252:1282   */\n      swap1\n      dup2\n      add\n        /* \"#utility.yul\":1245:1286   */\n      dup6\n      swap1\n      mstore\n        /* \"#utility.yul\":1420:1432   */\n      swap8\n      dup11\n      add\n      swap8\n        /* \"#utility.yul\":1352:1354   */\n      0x1f\n        /* \"#utility.yul\":1329:1346   */\n      swap1\n      swap2\n      add\n      not(0x1f)\n        /* \"#utility.yul\":1325:1356   */\n      and\n        /* \"#utility.yul\":1313:1357   */\n      swap1\n      swap6\n      add\n        /* \"#utility.yul\":1309:1362   */\n      swap1\n      swap5\n      add\n      swap4\n      pop\n        /* \"#utility.yul\":1385:1400   */\n      swap2\n      dup8\n      add\n      swap2\n        /* \"#utility.yul\":641:642   */\n      0x01\n        /* \"#utility.yul\":632:643   */\n      add\n        /* \"#utility.yul\":599:1442   */\n      jump(tag_33)\n    tag_35:\n      pop\n        /* \"#utility.yul\":1459:1465   */\n      swap2\n      swap10\n        /* \"#utility.yul\":14:1471   */\n      swap9\n      pop\n      pop\n      pop\n      pop\n      pop\n      pop\n      pop\n      pop\n      pop\n      jump\t// out\n        /* \"#utility.yul\":1476:1603   */\n    tag_27:\n        /* \"#utility.yul\":1537:1547   */\n      0x4e487b71\n        /* \"#utility.yul\":1532:1535   */\n      0xe0\n        /* \"#utility.yul\":1528:1548   */\n      shl\n        /* \"#utility.yul\":1525:1526   */\n      0x00\n        /* \"#utility.yul\":1518:1549   */\n      mstore\n        /* \"#utility.yul\":1568:1572   */\n      0x41\n        /* \"#utility.yul\":1565:1566   */\n      0x04\n        /* \"#utility.yul\":1558:1573   */\n      mstore\n        /* \"#utility.yul\":1592:1596   */\n      0x24\n        /* \"#utility.yul\":1589:1590   */\n      0x00\n        /* \"#utility.yul\":1582:1597   */\n      revert\n        /* \"#utility.yul\":1608:2704   */\n    tag_11:\n        /* \"#utility.yul\":1686:1692   */\n      0x00\n        /* \"#utility.yul\":1694:1700   */\n      dup1\n        /* \"#utility.yul\":1747:1749   */\n      0x40\n        /* \"#utility.yul\":1735:1744   */\n      dup4\n        /* \"#utility.yul\":1726:1733   */\n      dup6\n        /* \"#utility.yul\":1722:1745   */\n      sub\n        /* \"#utility.yul\":1718:1750   */\n      slt\n        /* \"#utility.yul\":1715:1767   */\n      iszero\n      tag_41\n      jumpi\n        /* \"#utility.yul\":1763:1764   */\n      0x00\n        /* \"#utility.yul\":1760:1761   */\n      dup1\n        /* \"#utility.yul\":1753:1765   */\n      revert\n        /* \"#utility.yul\":1715:1767   */\n    tag_41:\n        /* \"#utility.yul\":1789:1812   */\n      dup3\n      calldataload\n      sub(shl(0xa0, 0x01), 0x01)\n        /* \"#utility.yul\":1841:1872   */\n      dup2\n      and\n        /* \"#utility.yul\":1831:1873   */\n      dup2\n      eq\n        /* \"#utility.yul\":1821:1891   */\n      tag_42\n      jumpi\n        /* \"#utility.yul\":1887:1888   */\n      0x00\n        /* \"#utility.yul\":1884:1885   */\n      dup1\n        /* \"#utility.yul\":1877:1889   */\n      revert\n        /* \"#utility.yul\":1821:1891   */\n    tag_42:\n        /* \"#utility.yul\":1910:1915   */\n      swap2\n      pop\n        /* \"#utility.yul\":1966:1968   */\n      0x20\n        /* \"#utility.yul\":1951:1969   */\n      dup4\n      add\n        /* \"#utility.yul\":1938:1970   */\n      calldataload\n        /* \"#utility.yul\":1989:2007   */\n      0xffffffffffffffff\n        /* \"#utility.yul\":2019:2033   */\n      dup1\n      dup3\n      gt\n        /* \"#utility.yul\":2016:2050   */\n      iszero\n      tag_43\n      jumpi\n        /* \"#utility.yul\":2046:2047   */\n      0x00\n        /* \"#utility.yul\":2043:2044   */\n      dup1\n        /* \"#utility.yul\":2036:2048   */\n      revert\n        /* \"#utility.yul\":2016:2050   */\n    tag_43:\n        /* \"#utility.yul\":2084:2090   */\n      dup2\n        /* \"#utility.yul\":2073:2082   */\n      dup6\n        /* \"#utility.yul\":2069:2091   */\n      add\n        /* \"#utility.yul\":2059:2091   */\n      swap2\n      pop\n        /* \"#utility.yul\":2129:2136   */\n      dup6\n        /* \"#utility.yul\":2122:2126   */\n      0x1f\n        /* \"#utility.yul\":2118:2120   */\n      dup4\n        /* \"#utility.yul\":2114:2127   */\n      add\n        /* \"#utility.yul\":2110:2137   */\n      slt\n        /* \"#utility.yul\":2100:2155   */\n      tag_44\n      jumpi\n        /* \"#utility.yul\":2151:2152   */\n      0x00\n        /* \"#utility.yul\":2148:2149   */\n      dup1\n        /* \"#utility.yul\":2141:2153   */\n      revert\n        /* \"#utility.yul\":2100:2155   */\n    tag_44:\n        /* \"#utility.yul\":2187:2189   */\n      dup2\n        /* \"#utility.yul\":2174:2190   */\n      calldataload\n        /* \"#utility.yul\":2209:2211   */\n      dup2\n        /* \"#utility.yul\":2205:2207   */\n      dup2\n        /* \"#utility.yul\":2202:2212   */\n      gt\n        /* \"#utility.yul\":2199:2235   */\n      iszero\n      tag_46\n      jumpi\n        /* \"#utility.yul\":2215:2233   */\n      tag_46\n      tag_27\n      jump\t// in\n    tag_46:\n        /* \"#utility.yul\":2290:2292   */\n      0x40\n        /* \"#utility.yul\":2284:2293   */\n      mload\n        /* \"#utility.yul\":2258:2260   */\n      0x1f\n        /* \"#utility.yul\":2344:2357   */\n      dup3\n      add\n      not(0x1f)\n        /* \"#utility.yul\":2340:2362   */\n      swap1\n      dup2\n      and\n        /* \"#utility.yul\":2364:2366   */\n      0x3f\n        /* \"#utility.yul\":2336:2367   */\n      add\n        /* \"#utility.yul\":2332:2372   */\n      and\n        /* \"#utility.yul\":2320:2373   */\n      dup2\n      add\n      swap1\n        /* \"#utility.yul\":2388:2406   */\n      dup4\n      dup3\n      gt\n        /* \"#utility.yul\":2408:2430   */\n      dup2\n      dup4\n      lt\n        /* \"#utility.yul\":2385:2431   */\n      or\n        /* \"#utility.yul\":2382:2454   */\n      iszero\n      tag_48\n      jumpi\n        /* \"#utility.yul\":2434:2452   */\n      tag_48\n      tag_27\n      jump\t// in\n    tag_48:\n        /* \"#utility.yul\":2474:2484   */\n      dup2\n        /* \"#utility.yul\":2470:2472   */\n      0x40\n        /* \"#utility.yul\":2463:2485   */\n      mstore\n        /* \"#utility.yul\":2509:2511   */\n      dup3\n        /* \"#utility.yul\":2501:2507   */\n      dup2\n        /* \"#utility.yul\":2494:2512   */\n      mstore\n        /* \"#utility.yul\":2549:2556   */\n      dup9\n        /* \"#utility.yul\":2544:2546   */\n      0x20\n        /* \"#utility.yul\":2539:2541   */\n      dup5\n        /* \"#utility.yul\":2535:2537   */\n      dup8\n        /* \"#utility.yul\":2531:2542   */\n      add\n        /* \"#utility.yul\":2527:2547   */\n      add\n        /* \"#utility.yul\":2524:2557   */\n      gt\n        /* \"#utility.yul\":2521:2574   */\n      iszero\n      tag_49\n      jumpi\n        /* \"#utility.yul\":2570:2571   */\n      0x00\n        /* \"#utility.yul\":2567:2568   */\n      dup1\n        /* \"#utility.yul\":2560:2572   */\n      revert\n        /* \"#utility.yul\":2521:2574   */\n    tag_49:\n        /* \"#utility.yul\":2626:2628   */\n      dup3\n        /* \"#utility.yul\":2621:2623   */\n      0x20\n        /* \"#utility.yul\":2617:2619   */\n      dup7\n        /* \"#utility.yul\":2613:2624   */\n      add\n        /* \"#utility.yul\":2608:2610   */\n      0x20\n        /* \"#utility.yul\":2600:2606   */\n      dup4\n        /* \"#utility.yul\":2596:2611   */\n      add\n        /* \"#utility.yul\":2583:2629   */\n      calldatacopy\n        /* \"#utility.yul\":2671:2672   */\n      0x00\n        /* \"#utility.yul\":2666:2668   */\n      0x20\n        /* \"#utility.yul\":2661:2663   */\n      dup5\n        /* \"#utility.yul\":2653:2659   */\n      dup4\n        /* \"#utility.yul\":2649:2664   */\n      add\n        /* \"#utility.yul\":2645:2669   */\n      add\n        /* \"#utility.yul\":2638:2673   */\n      mstore\n        /* \"#utility.yul\":2692:2698   */\n      dup1\n        /* \"#utility.yul\":2682:2698   */\n      swap6\n      pop\n      pop\n      pop\n      pop\n      pop\n      pop\n        /* \"#utility.yul\":1608:2704   */\n      swap3\n      pop\n      swap3\n      swap1\n      pop\n      jump\t// out\n        /* \"#utility.yul\":2709:3089   */\n    tag_18:\n        /* \"#utility.yul\":2788:2789   */\n      0x01\n        /* \"#utility.yul\":2784:2796   */\n      dup2\n      dup2\n      shr\n      swap1\n        /* \"#utility.yul\":2831:2843   */\n      dup3\n      and\n      dup1\n        /* \"#utility.yul\":2852:2913   */\n      tag_51\n      jumpi\n        /* \"#utility.yul\":2906:2910   */\n      0x7f\n        /* \"#utility.yul\":2898:2904   */\n      dup3\n        /* \"#utility.yul\":2894:2911   */\n      and\n        /* \"#utility.yul\":2884:2911   */\n      swap2\n      pop\n        /* \"#utility.yul\":2852:2913   */\n    tag_51:\n        /* \"#utility.yul\":2959:2961   */\n      0x20\n        /* \"#utility.yul\":2951:2957   */\n      dup3\n        /* \"#utility.yul\":2948:2962   */\n      lt\n        /* \"#utility.yul\":2928:2946   */\n      dup2\n        /* \"#utility.yul\":2925:2963   */\n      sub\n        /* \"#utility.yul\":2922:3083   */\n      tag_52\n      jumpi\n        /* \"#utility.yul\":3005:3015   */\n      0x4e487b71\n        /* \"#utility.yul\":3000:3003   */\n      0xe0\n        /* \"#utility.yul\":2996:3016   */\n      shl\n        /* \"#utility.yul\":2993:2994   */\n      0x00\n        /* \"#utility.yul\":2986:3017   */\n      mstore\n        /* \"#utility.yul\":3040:3044   */\n      0x22\n        /* \"#utility.yul\":3037:3038   */\n      0x04\n        /* \"#utility.yul\":3030:3045   */\n      mstore\n        /* \"#utility.yul\":3068:3072   */\n      0x24\n        /* \"#utility.yul\":3065:3066   */\n      0x00\n        /* \"#utility.yul\":3058:3073   */\n      revert\n        /* \"#utility.yul\":2922:3083   */\n    tag_52:\n      pop\n        /* \"#utility.yul\":2709:3089   */\n      swap2\n      swap1\n      pop\n      jump\t// out\n        /* \"#utility.yul\":3220:3765   */\n    tag_29:\n        /* \"#utility.yul\":3322:3324   */\n      0x1f\n        /* \"#utility.yul\":3317:3320   */\n      dup3\n        /* \"#utility.yul\":3314:3325   */\n      gt\n        /* \"#utility.yul\":3311:3759   */\n      iszero\n      tag_55\n      jumpi\n        /* \"#utility.yul\":3358:3359   */\n      0x00\n        /* \"#utility.yul\":3383:3388   */\n      dup2\n        /* \"#utility.yul\":3379:3381   */\n      dup2\n        /* \"#utility.yul\":3372:3389   */\n      mstore\n        /* \"#utility.yul\":3428:3432   */\n      0x20\n        /* \"#utility.yul\":3424:3426   */\n      dup2\n        /* \"#utility.yul\":3414:3433   */\n      keccak256\n        /* \"#utility.yul\":3498:3500   */\n      0x1f\n        /* \"#utility.yul\":3486:3496   */\n      dup6\n        /* \"#utility.yul\":3482:3501   */\n      add\n        /* \"#utility.yul\":3479:3480   */\n      0x05\n        /* \"#utility.yul\":3475:3502   */\n      shr\n        /* \"#utility.yul\":3469:3473   */\n      dup2\n        /* \"#utility.yul\":3465:3503   */\n      add\n        /* \"#utility.yul\":3534:3538   */\n      0x20\n        /* \"#utility.yul\":3522:3532   */\n      dup7\n        /* \"#utility.yul\":3519:3539   */\n      lt\n        /* \"#utility.yul\":3516:3563   */\n      iszero\n      tag_56\n      jumpi\n      pop\n        /* \"#utility.yul\":3557:3561   */\n      dup1\n        /* \"#utility.yul\":3516:3563   */\n    tag_56:\n        /* \"#utility.yul\":3612:3614   */\n      0x1f\n        /* \"#utility.yul\":3607:3610   */\n      dup6\n        /* \"#utility.yul\":3603:3615   */\n      add\n        /* \"#utility.yul\":3600:3601   */\n      0x05\n        /* \"#utility.yul\":3596:3616   */\n      shr\n        /* \"#utility.yul\":3590:3594   */\n      dup3\n        /* \"#utility.yul\":3586:3617   */\n      add\n        /* \"#utility.yul\":3576:3617   */\n      swap2\n      pop\n        /* \"#utility.yul\":3667:3749   */\n    tag_57:\n        /* \"#utility.yul\":3685:3687   */\n      dup2\n        /* \"#utility.yul\":3678:3683   */\n      dup2\n        /* \"#utility.yul\":3675:3688   */\n      lt\n        /* \"#utility.yul\":3667:3749   */\n      iszero\n      tag_59\n      jumpi\n        /* \"#utility.yul\":3730:3747   */\n      dup3\n      dup2\n      sstore\n        /* \"#utility.yul\":3711:3712   */\n      0x01\n        /* \"#utility.yul\":3700:3713   */\n      add\n        /* \"#utility.yul\":3667:3749   */\n      jump(tag_57)\n    tag_59:\n        /* \"#utility.yul\":3671:3674   */\n      pop\n      pop\n      pop\n        /* \"#utility.yul\":3311:3759   */\n    tag_55:\n        /* \"#utility.yul\":3220:3765   */\n      pop\n      pop\n      pop\n      jump\t// out\n        /* \"#utility.yul\":3941:5293   */\n    tag_26:\n        /* \"#utility.yul\":4067:4070   */\n      dup2\n        /* \"#utility.yul\":4061:4071   */\n      mload\n        /* \"#utility.yul\":4094:4112   */\n      0xffffffffffffffff\n        /* \"#utility.yul\":4086:4092   */\n      dup2\n        /* \"#utility.yul\":4083:4113   */\n      gt\n        /* \"#utility.yul\":4080:4136   */\n      iszero\n      tag_63\n      jumpi\n        /* \"#utility.yul\":4116:4134   */\n      tag_63\n      tag_27\n      jump\t// in\n    tag_63:\n        /* \"#utility.yul\":4145:4242   */\n      tag_64\n        /* \"#utility.yul\":4235:4241   */\n      dup2\n        /* \"#utility.yul\":4195:4233   */\n      tag_65\n        /* \"#utility.yul\":4227:4231   */\n      dup5\n        /* \"#utility.yul\":4221:4232   */\n      sload\n        /* \"#utility.yul\":4195:4233   */\n      tag_18\n      jump\t// in\n    tag_65:\n        /* \"#utility.yul\":4189:4193   */\n      dup5\n        /* \"#utility.yul\":4145:4242   */\n      tag_29\n      jump\t// in\n    tag_64:\n        /* \"#utility.yul\":4297:4301   */\n      0x20\n      dup1\n        /* \"#utility.yul\":4361:4363   */\n      0x1f\n        /* \"#utility.yul\":4350:4364   */\n      dup4\n      gt\n        /* \"#utility.yul\":4378:4379   */\n      0x01\n        /* \"#utility.yul\":4373:5036   */\n      dup2\n      eq\n      tag_67\n      jumpi\n        /* \"#utility.yul\":5080:5081   */\n      0x00\n        /* \"#utility.yul\":5097:5103   */\n      dup5\n        /* \"#utility.yul\":5094:5183   */\n      iszero\n      tag_68\n      jumpi\n      pop\n        /* \"#utility.yul\":5149:5168   */\n      dup6\n      dup4\n      add\n        /* \"#utility.yul\":5143:5169   */\n      mload\n        /* \"#utility.yul\":5094:5183   */\n    tag_68:\n      not(0x00)\n        /* \"#utility.yul\":3898:3899   */\n      0x03\n        /* \"#utility.yul\":3894:3905   */\n      dup7\n      swap1\n      shl\n        /* \"#utility.yul\":3890:3914   */\n      shr\n        /* \"#utility.yul\":3886:3915   */\n      not\n        /* \"#utility.yul\":3876:3916   */\n      and\n        /* \"#utility.yul\":3922:3923   */\n      0x01\n        /* \"#utility.yul\":3918:3929   */\n      dup6\n      swap1\n      shl\n        /* \"#utility.yul\":3873:3930   */\n      or\n        /* \"#utility.yul\":5196:5277   */\n      dup6\n      sstore\n        /* \"#utility.yul\":4343:5287   */\n      jump(tag_59)\n        /* \"#utility.yul\":4373:5036   */\n    tag_67:\n        /* \"#utility.yul\":3167:3168   */\n      0x00\n        /* \"#utility.yul\":3160:3174   */\n      dup6\n      dup2\n      mstore\n        /* \"#utility.yul\":3204:3208   */\n      0x20\n        /* \"#utility.yul\":3191:3209   */\n      dup2\n      keccak256\n      not(0x1f)\n        /* \"#utility.yul\":4409:4429   */\n      dup7\n      and\n      swap2\n        /* \"#utility.yul\":4527:4763   */\n    tag_71:\n        /* \"#utility.yul\":4541:4548   */\n      dup3\n        /* \"#utility.yul\":4538:4539   */\n      dup2\n        /* \"#utility.yul\":4535:4549   */\n      lt\n        /* \"#utility.yul\":4527:4763   */\n      iszero\n      tag_73\n      jumpi\n        /* \"#utility.yul\":4630:4649   */\n      dup9\n      dup7\n      add\n        /* \"#utility.yul\":4624:4650   */\n      mload\n        /* \"#utility.yul\":4609:4651   */\n      dup3\n      sstore\n        /* \"#utility.yul\":4722:4749   */\n      swap5\n      dup5\n      add\n      swap5\n        /* \"#utility.yul\":4690:4691   */\n      0x01\n        /* \"#utility.yul\":4678:4692   */\n      swap1\n      swap2\n      add\n      swap1\n        /* \"#utility.yul\":4557:4576   */\n      dup5\n      add\n        /* \"#utility.yul\":4527:4763   */\n      jump(tag_71)\n    tag_73:\n        /* \"#utility.yul\":4531:4534   */\n      pop\n        /* \"#utility.yul\":4791:4797   */\n      dup6\n        /* \"#utility.yul\":4782:4789   */\n      dup3\n        /* \"#utility.yul\":4779:4798   */\n      lt\n        /* \"#utility.yul\":4776:4977   */\n      iszero\n      tag_74\n      jumpi\n        /* \"#utility.yul\":4852:4871   */\n      dup8\n      dup6\n      add\n        /* \"#utility.yul\":4846:4872   */\n      mload\n      not(0x00)\n        /* \"#utility.yul\":4935:4936   */\n      0x03\n        /* \"#utility.yul\":4931:4945   */\n      dup9\n      swap1\n      shl\n        /* \"#utility.yul\":4947:4950   */\n      0xf8\n        /* \"#utility.yul\":4927:4951   */\n      and\n        /* \"#utility.yul\":4923:4960   */\n      shr\n        /* \"#utility.yul\":4919:4961   */\n      not\n        /* \"#utility.yul\":4904:4962   */\n      and\n        /* \"#utility.yul\":4889:4963   */\n      dup2\n      sstore\n        /* \"#utility.yul\":4776:4977   */\n    tag_74:\n      pop\n      pop\n      pop\n      pop\n      pop\n        /* \"#utility.yul\":5023:5024   */\n      0x01\n        /* \"#utility.yul\":5007:5021   */\n      swap1\n      dup2\n      shl\n        /* \"#utility.yul\":5003:5025   */\n      add\n        /* \"#utility.yul\":4990:5026   */\n      swap1\n      sstore\n      pop\n        /* \"#utility.yul\":3941:5293   */\n      jump\t// out\n\n    auxdata: 0xa2646970667358221220941dba7bab1d657e8059591fece312e9622f4e8b3cf4285f6d08688ca7a46c8964736f6c63430008120033\n}\n",
				"bytecode": {
					"linkReferences": {},
					"object": "608060405234801561001057600080fd5b50610508806100206000396000f3fe608060405234801561001057600080fd5b50600436106100365760003560e01c806321dee0e61461003b578063f122ed6014610059575b600080fd5b61004361006e565b60405161005091906101f0565b60405180910390f35b61006c6100673660046102b9565b61017d565b005b33600090815260208181526040808320805482518185028101850190935280835260609492939192909184015b82821015610174576000848152602090819020604080518082019091526002850290910180546001600160a01b0316825260018101805492939192918401916100e390610389565b80601f016020809104026020016040519081016040528092919081815260200182805461010f90610389565b801561015c5780601f106101315761010080835404028352916020019161015c565b820191906000526020600020905b81548152906001019060200180831161013f57829003601f168201915b5050505050815250508152602001906001019061009b565b50505050905090565b6001600160a01b03828116600090815260208181526040808320815180830190925233825281830186815281546001808201845592865293909420825160029094020180546001600160a01b031916939095169290921784559151919291908201906101e99082610412565b5050505050565b60006020808301818452808551808352604092508286019150828160051b8701018488016000805b8481101561029457898403603f19018652825180516001600160a01b031685528801518885018890528051888601819052835b81811015610267578281018b0151878201606001528a0161024b565b508581016060908101859052978a0197601f909101601f1916909501909401935091870191600101610218565b50919998505050505050505050565b634e487b7160e01b600052604160045260246000fd5b600080604083850312156102cc57600080fd5b82356001600160a01b03811681146102e357600080fd5b9150602083013567ffffffffffffffff8082111561030057600080fd5b818501915085601f83011261031457600080fd5b813581811115610326576103266102a3565b604051601f8201601f19908116603f0116810190838211818310171561034e5761034e6102a3565b8160405282815288602084870101111561036757600080fd5b8260208601602083013760006020848301015280955050505050509250929050565b600181811c9082168061039d57607f821691505b6020821081036103bd57634e487b7160e01b600052602260045260246000fd5b50919050565b601f82111561040d57600081815260208120601f850160051c810160208610156103ea5750805b601f850160051c820191505b81811015610409578281556001016103f6565b5050505b505050565b815167ffffffffffffffff81111561042c5761042c6102a3565b6104408161043a8454610389565b846103c3565b602080601f831160018114610475576000841561045d5750858301515b600019600386901b1c1916600185901b178555610409565b600085815260208120601f198616915b828110156104a457888601518255948401946001909101908401610485565b50858210156104c25787850151600019600388901b60f8161c191681555b5050505050600190811b0190555056fea2646970667358221220941dba7bab1d657e8059591fece312e9622f4e8b3cf4285f6d08688ca7a46c8964736f6c63430008120033",
					"opcodes": "PUSH1 0x80 PUSH1 0x40 MSTORE CALLVALUE DUP1 ISZERO PUSH2 0x10 JUMPI PUSH1 0x0 DUP1 REVERT JUMPDEST POP PUSH2 0x508 DUP1 PUSH2 0x20 PUSH1 0x0 CODECOPY PUSH1 0x0 RETURN INVALID PUSH1 0x80 PUSH1 0x40 MSTORE CALLVALUE DUP1 ISZERO PUSH2 0x10 JUMPI PUSH1 0x0 DUP1 REVERT JUMPDEST POP PUSH1 0x4 CALLDATASIZE LT PUSH2 0x36 JUMPI PUSH1 0x0 CALLDATALOAD PUSH1 0xE0 SHR DUP1 PUSH4 0x21DEE0E6 EQ PUSH2 0x3B JUMPI DUP1 PUSH4 0xF122ED60 EQ PUSH2 0x59 JUMPI JUMPDEST PUSH1 0x0 DUP1 REVERT JUMPDEST PUSH2 0x43 PUSH2 0x6E JUMP JUMPDEST PUSH1 0x40 MLOAD PUSH2 0x50 SWAP2 SWAP1 PUSH2 0x1F0 JUMP JUMPDEST PUSH1 0x40 MLOAD DUP1 SWAP2 SUB SWAP1 RETURN JUMPDEST PUSH2 0x6C PUSH2 0x67 CALLDATASIZE PUSH1 0x4 PUSH2 0x2B9 JUMP JUMPDEST PUSH2 0x17D JUMP JUMPDEST STOP JUMPDEST CALLER PUSH1 0x0 SWAP1 DUP2 MSTORE PUSH1 0x20 DUP2 DUP2 MSTORE PUSH1 0x40 DUP1 DUP4 KECCAK256 DUP1 SLOAD DUP3 MLOAD DUP2 DUP6 MUL DUP2 ADD DUP6 ADD SWAP1 SWAP4 MSTORE DUP1 DUP4 MSTORE PUSH1 0x60 SWAP5 SWAP3 SWAP4 SWAP2 SWAP3 SWAP1 SWAP2 DUP5 ADD JUMPDEST DUP3 DUP3 LT ISZERO PUSH2 0x174 JUMPI PUSH1 0x0 DUP5 DUP2 MSTORE PUSH1 0x20 SWAP1 DUP2 SWAP1 KECCAK256 PUSH1 0x40 DUP1 MLOAD DUP1 DUP3 ADD SWAP1 SWAP2 MSTORE PUSH1 0x2 DUP6 MUL SWAP1 SWAP2 ADD DUP1 SLOAD PUSH1 0x1 PUSH1 0x1 PUSH1 0xA0 SHL SUB AND DUP3 MSTORE PUSH1 0x1 DUP2 ADD DUP1 SLOAD SWAP3 SWAP4 SWAP2 SWAP3 SWAP2 DUP5 ADD SWAP2 PUSH2 0xE3 SWAP1 PUSH2 0x389 JUMP JUMPDEST DUP1 PUSH1 0x1F ADD PUSH1 0x20 DUP1 SWAP2 DIV MUL PUSH1 0x20 ADD PUSH1 0x40 MLOAD SWAP1 DUP2 ADD PUSH1 0x40 MSTORE DUP1 SWAP3 SWAP2 SWAP1 DUP2 DUP2 MSTORE PUSH1 0x20 ADD DUP3 DUP1 SLOAD PUSH2 0x10F SWAP1 PUSH2 0x389 JUMP JUMPDEST DUP1 ISZERO PUSH2 0x15C JUMPI DUP1 PUSH1 0x1F LT PUSH2 0x131 JUMPI PUSH2 0x100 DUP1 DUP4 SLOAD DIV MUL DUP4 MSTORE SWAP2 PUSH1 0x20 ADD SWAP2 PUSH2 0x15C JUMP JUMPDEST DUP3 ADD SWAP2 SWAP1 PUSH1 0x0 MSTORE PUSH1 0x20 PUSH1 0x0 KECCAK256 SWAP1 JUMPDEST DUP2 SLOAD DUP2 MSTORE SWAP1 PUSH1 0x1 ADD SWAP1 PUSH1 0x20 ADD DUP1 DUP4 GT PUSH2 0x13F JUMPI DUP3 SWAP1 SUB PUSH1 0x1F AND DUP3 ADD SWAP2 JUMPDEST POP POP POP POP POP DUP2 MSTORE POP POP DUP2 MSTORE PUSH1 0x20 ADD SWAP1 PUSH1 0x1 ADD SWAP1 PUSH2 0x9B JUMP JUMPDEST POP POP POP POP SWAP1 POP SWAP1 JUMP JUMPDEST PUSH1 0x1 PUSH1 0x1 PUSH1 0xA0 SHL SUB DUP3 DUP2 AND PUSH1 0x0 SWAP1 DUP2 MSTORE PUSH1 0x20 DUP2 DUP2 MSTORE PUSH1 0x40 DUP1 DUP4 KECCAK256 DUP2 MLOAD DUP1 DUP4 ADD SWAP1 SWAP3 MSTORE CALLER DUP3 MSTORE DUP2 DUP4 ADD DUP7 DUP2 MSTORE DUP2 SLOAD PUSH1 0x1 DUP1 DUP3 ADD DUP5 SSTORE SWAP3 DUP7 MSTORE SWAP4 SWAP1 SWAP5 KECCAK256 DUP3 MLOAD PUSH1 0x2 SWAP1 SWAP5 MUL ADD DUP1 SLOAD PUSH1 0x1 PUSH1 0x1 PUSH1 0xA0 SHL SUB NOT AND SWAP4 SWAP1 SWAP6 AND SWAP3 SWAP1 SWAP3 OR DUP5 SSTORE SWAP2 MLOAD SWAP2 SWAP3 SWAP2 SWAP1 DUP3 ADD SWAP1 PUSH2 0x1E9 SWAP1 DUP3 PUSH2 0x412 JUMP JUMPDEST POP POP POP POP POP JUMP JUMPDEST PUSH1 0x0 PUSH1 0x20 DUP1 DUP4 ADD DUP2 DUP5 MSTORE DUP1 DUP6 MLOAD DUP1 DUP4 MSTORE PUSH1 0x40 SWAP3 POP DUP3 DUP7 ADD SWAP2 POP DUP3 DUP2 PUSH1 0x5 SHL DUP8 ADD ADD DUP5 DUP9 ADD PUSH1 0x0 DUP1 JUMPDEST DUP5 DUP2 LT ISZERO PUSH2 0x294 JUMPI DUP10 DUP5 SUB PUSH1 0x3F NOT ADD DUP7 MSTORE DUP3 MLOAD DUP1 MLOAD PUSH1 0x1 PUSH1 0x1 PUSH1 0xA0 SHL SUB AND DUP6 MSTORE DUP9 ADD MLOAD DUP9 DUP6 ADD DUP9 SWAP1 MSTORE DUP1 MLOAD DUP9 DUP7 ADD DUP2 SWAP1 MSTORE DUP4 JUMPDEST DUP2 DUP2 LT ISZERO PUSH2 0x267 JUMPI DUP3 DUP2 ADD DUP12 ADD MLOAD DUP8 DUP3 ADD PUSH1 0x60 ADD MSTORE DUP11 ADD PUSH2 0x24B JUMP JUMPDEST POP DUP6 DUP2 ADD PUSH1 0x60 SWAP1 DUP2 ADD DUP6 SWAP1 MSTORE SWAP8 DUP11 ADD SWAP8 PUSH1 0x1F SWAP1 SWAP2 ADD PUSH1 0x1F NOT AND SWAP1 SWAP6 ADD SWAP1 SWAP5 ADD SWAP4 POP SWAP2 DUP8 ADD SWAP2 PUSH1 0x1 ADD PUSH2 0x218 JUMP JUMPDEST POP SWAP2 SWAP10 SWAP9 POP POP POP POP POP POP POP POP POP JUMP JUMPDEST PUSH4 0x4E487B71 PUSH1 0xE0 SHL PUSH1 0x0 MSTORE PUSH1 0x41 PUSH1 0x4 MSTORE PUSH1 0x24 PUSH1 0x0 REVERT JUMPDEST PUSH1 0x0 DUP1 PUSH1 0x40 DUP4 DUP6 SUB SLT ISZERO PUSH2 0x2CC JUMPI PUSH1 0x0 DUP1 REVERT JUMPDEST DUP3 CALLDATALOAD PUSH1 0x1 PUSH1 0x1 PUSH1 0xA0 SHL SUB DUP2 AND DUP2 EQ PUSH2 0x2E3 JUMPI PUSH1 0x0 DUP1 REVERT JUMPDEST SWAP2 POP PUSH1 0x20 DUP4 ADD CALLDATALOAD PUSH8 0xFFFFFFFFFFFFFFFF DUP1 DUP3 GT ISZERO PUSH2 0x300 JUMPI PUSH1 0x0 DUP1 REVERT JUMPDEST DUP2 DUP6 ADD SWAP2 POP DUP6 PUSH1 0x1F DUP4 ADD SLT PUSH2 0x314 JUMPI PUSH1 0x0 DUP1 REVERT JUMPDEST DUP2 CALLDATALOAD DUP2 DUP2 GT ISZERO PUSH2 0x326 JUMPI PUSH2 0x326 PUSH2 0x2A3 JUMP JUMPDEST PUSH1 0x40 MLOAD PUSH1 0x1F DUP3 ADD PUSH1 0x1F NOT SWAP1 DUP2 AND PUSH1 0x3F ADD AND DUP2 ADD SWAP1 DUP4 DUP3 GT DUP2 DUP4 LT OR ISZERO PUSH2 0x34E JUMPI PUSH2 0x34E PUSH2 0x2A3 JUMP JUMPDEST DUP2 PUSH1 0x40 MSTORE DUP3 DUP2 MSTORE DUP9 PUSH1 0x20 DUP5 DUP8 ADD ADD GT ISZERO PUSH2 0x367 JUMPI PUSH1 0x0 DUP1 REVERT JUMPDEST DUP3 PUSH1 0x20 DUP7 ADD PUSH1 0x20 DUP4 ADD CALLDATACOPY PUSH1 0x0 PUSH1 0x20 DUP5 DUP4 ADD ADD MSTORE DUP1 SWAP6 POP POP POP POP POP POP SWAP3 POP SWAP3 SWAP1 POP JUMP JUMPDEST PUSH1 0x1 DUP2 DUP2 SHR SWAP1 DUP3 AND DUP1 PUSH2 0x39D JUMPI PUSH1 0x7F DUP3 AND SWAP2 POP JUMPDEST PUSH1 0x20 DUP3 LT DUP2 SUB PUSH2 0x3BD JUMPI PUSH4 0x4E487B71 PUSH1 0xE0 SHL PUSH1 0x0 MSTORE PUSH1 0x22 PUSH1 0x4 MSTORE PUSH1 0x24 PUSH1 0x0 REVERT JUMPDEST POP SWAP2 SWAP1 POP JUMP JUMPDEST PUSH1 0x1F DUP3 GT ISZERO PUSH2 0x40D JUMPI PUSH1 0x0 DUP2 DUP2 MSTORE PUSH1 0x20 DUP2 KECCAK256 PUSH1 0x1F DUP6 ADD PUSH1 0x5 SHR DUP2 ADD PUSH1 0x20 DUP7 LT ISZERO PUSH2 0x3EA JUMPI POP DUP1 JUMPDEST PUSH1 0x1F DUP6 ADD PUSH1 0x5 SHR DUP3 ADD SWAP2 POP JUMPDEST DUP2 DUP2 LT ISZERO PUSH2 0x409 JUMPI DUP3 DUP2 SSTORE PUSH1 0x1 ADD PUSH2 0x3F6 JUMP JUMPDEST POP POP POP JUMPDEST POP POP POP JUMP JUMPDEST DUP2 MLOAD PUSH8 0xFFFFFFFFFFFFFFFF DUP2 GT ISZERO PUSH2 0x42C JUMPI PUSH2 0x42C PUSH2 0x2A3 JUMP JUMPDEST PUSH2 0x440 DUP2 PUSH2 0x43A DUP5 SLOAD PUSH2 0x389 JUMP JUMPDEST DUP5 PUSH2 0x3C3 JUMP JUMPDEST PUSH1 0x20 DUP1 PUSH1 0x1F DUP4 GT PUSH1 0x1 DUP2 EQ PUSH2 0x475 JUMPI PUSH1 0x0 DUP5 ISZERO PUSH2 0x45D JUMPI POP DUP6 DUP4 ADD MLOAD JUMPDEST PUSH1 0x0 NOT PUSH1 0x3 DUP7 SWAP1 SHL SHR NOT AND PUSH1 0x1 DUP6 SWAP1 SHL OR DUP6 SSTORE PUSH2 0x409 JUMP JUMPDEST PUSH1 0x0 DUP6 DUP2 MSTORE PUSH1 0x20 DUP2 KECCAK256 PUSH1 0x1F NOT DUP7 AND SWAP2 JUMPDEST DUP3 DUP2 LT ISZERO PUSH2 0x4A4 JUMPI DUP9 DUP7 ADD MLOAD DUP3 SSTORE SWAP5 DUP5 ADD SWAP5 PUSH1 0x1 SWAP1 SWAP2 ADD SWAP1 DUP5 ADD PUSH2 0x485 JUMP JUMPDEST POP DUP6 DUP3 LT ISZERO PUSH2 0x4C2 JUMPI DUP8 DUP6 ADD MLOAD PUSH1 0x0 NOT PUSH1 0x3 DUP9 SWAP1 SHL PUSH1 0xF8 AND SHR NOT AND DUP2 SSTORE JUMPDEST POP POP POP POP POP PUSH1 0x1 SWAP1 DUP2 SHL ADD SWAP1 SSTORE POP JUMP INVALID LOG2 PUSH5 0x6970667358 0x22 SLT KECCAK256 SWAP5 SAR 0xBA PUSH28 0xAB1D657E8059591FECE312E9622F4E8B3CF4285F6D08688CA7A46C89 PUSH5 0x736F6C6343 STOP ADDMOD SLT STOP CALLER "
				},
				"gasEstimates": {
					"creation": {
						"codeDepositCost": "257600",
						"executionCost": "300",
						"totalCost": "257900"
					},
					"external": {
						"read_messages()": "infinite",
						"send_message(address,string)": "infinite"
					}
				},
				"methodIdentifiers": {
					"read_messages()": "21dee0e6",
					"send_message(address,string)": "f122ed60"
				}
			},
			"storageLayout": {
				"storage": [
					{
						"astId": 12,
						"contract": "Messenger_SC.sol:Messenger",
						"label": "message",
						"offset": 0,
						"slot": "0",
						"type": "t_mapping(t_address,t_array(t_struct(Message)6_storage)dyn_storage)"
					}
				],
				"types": {
					"t_address": {
						"encoding": "inplace",
						"label": "address",
						"numberOfBytes": "20"
					},
					"t_array(t_struct(Message)6_storage)dyn_storage": {
						"base": "t_struct(Message)6_storage",
						"encoding": "dynamic_array",
						"label": "struct Messenger.Message[]",
						"numberOfBytes": "32"
					},
					"t_mapping(t_address,t_array(t_struct(Message)6_storage)dyn_storage)": {
						"encoding": "mapping",
						"key": "t_address",
						"label": "mapping(address => struct Messenger.Message[])",
						"numberOfBytes": "32",
						"value": "t_array(t_struct(Message)6_storage)dyn_storage"
					},
					"t_string_storage": {
						"encoding": "bytes",
						"label": "string",
						"numberOfBytes": "32"
					},
					"t_struct(Message)6_storage": {
						"encoding": "inplace",
						"label": "struct Messenger.Message",
						"members": [
							{
								"astId": 3,
								"contract": "Messenger_SC.sol:Messenger",
								"label": "_from",
								"offset": 0,
								"slot": "0",
								"type": "t_address"
							},
							{
								"astId": 5,
								"contract": "Messenger_SC.sol:Messenger",
								"label": "_message",
								"offset": 0,
								"slot": "1",
								"type": "t_string_storage"
							}
						],
						"numberOfBytes": "64"
					}
				}
			},
			"userdoc": {
				"kind": "user",
				"methods": {},
				"version": 1
			}
		}
	}
}